:020000040000FA
:0400000007EF00F016
:0A00080013821DED04F09DEF05F0DA
:100600000053656E686120616C746572616461207D
:10061000636F6D207375636573736F3A0044696728
:1006200069746520737561206E6F76612073656EE5
:1006300068613A0044696769746520612073656E7A
:1006400068612070616472616F3A0044696769741F
:1006500065207375612073656E68613A200053658B
:100660006E6861206EE36F20616C74657261646115
:1006700000446967697465207375612073656E68ED
:10068000613A004D6F646F206D756461722073650F
:100690006E68613A0044696769746520737561200A
:1006A00073656E686100416C61726D6520446573AD
:1006B0006C696761646F0053656E686120616C747A
:1006C000657261646100506F727461206665636871
:1006D00061646100506F727461204162657274617F
:1006E00000506F7274612061626572746100202035
:1006F0002020414C41524D450000B6EC05F0830EE0
:10070000026E060E036E39EC05F0280ED6EC05F0ED
:100710001D0E026E060E036E39EC05F00DEF04F0AF
:10072000818A820E046EDE0EE82EFED7042EFCD7E0
:10073000819A820E046EDE0EE82EFED7042EFCD7C0
:10074000630EAE18D8A4A7EF03F0A9EF03F0DFEF14
:1007500003F0000E126E010E116EB6EC05F0B70E2E
:10076000026E060E036E39EC05F0060E056E130ED2
:10077000046EAE0EE82EFED7042EFCD7052EFAD757
:100780000F041010D8A4C7EF03F0C9EF03F0D3EFA4
:1007900003F0B6EC05F0E10E026E060E036E39ECC6
:1007A00005F00DEF04F0B6EC05F0C60E026E060E75
:1007B000036E39EC05F00DEF04F00DEF04F0640E5C
:1007C000AE18D8A4E6EF03F0E8EF03F00DEF04F065
:1007D000000E126E010E116EB6EC05F05E0E026E8A
:1007E000060E036E39EC05F0060E056E130E046E50
:1007F000AE0EE82EFED7042EFCD7052EFAD7B6ECA7
:1008000005F0710E026E060E036E39EC05F00DEF69
:1008100004F00DEF04F00DEF04F011041210D8A451
:1008200014EF04F016EF04F090EF03F018EF04F06B
:10083000000E126E000E116E12000600F6CF06F0CA
:10084000F7CF07F0F8CF08F0F5CF09F09EAA2BEF0D
:1008500004F02DEF04F06AEF04F09E9A610EAE18DA
:10086000D8A435EF04F037EF04F03BEF04F08DEC43
:1008700005F06AEF04F0620EAE18D8A442EF04F05F
:1008800044EF04F048EF04F07DEC03F06AEF04F06D
:10089000640EAE18D8A44FEF04F051EF04F055EFFA
:1008A00004F078EC05F06AEF04F0650EAE18D8A4F9
:1008B0005CEF04F05EEF04F06AEF04F059EC05F031
:1008C0006AEF04F06AEF04F06AEF04F06AEF04F0F4
:1008D0006AEF04F009C0F5FF08C0F8FF07C0F7FF92
:1008E00006C0F6FF13921100F8EC04F0C5EC04F01A
:1008F000000E836E000E816E000E846E818EAAEC57
:1009000005F0710E0B6E060E0C6E19EC05F089EFFA
:1009100004F082B08EEF04F090EF04F089EF04F061
:10092000070E0E6E7D0EE82EFED70E2EFCD700F0C1
:1009300082B09DEF04F09FEF04F089EF04F0A3EF85
:1009400004F0A3EF04F082A0A8EF04F0AAEF04F0F3
:10095000A3EF04F0ACEF04F0AAEC05F04B0E0B6E25
:10096000060E0C6E19EC05F0818E8190819A000EB6
:10097000106E000E0F6E89EF04F089EF04F089EF1E
:1009800004F089EF04F007EF00F0030E0D6E8D9078
:100990008D92140E0C6E7A0EE82EFED70C2EFCD71C
:1009A0000DC083FF8D828D92070E0C6E7D0EE82E9A
:1009B000FED70C2EFCD700F08D828D92420EE82ED1
:1009C000FED700D08D828D92420EE82EFED700D049
:1009D000020E836E8D828D92380EC2EC05F0060EEB
:1009E000C2EC05F00C0EC2EC05F0AAEC05F012000A
:1009F000DF0E926E000E936E9468000E956E0C0ED4
:100A0000966E630ED36ED08E9D8A9F8AC00EF26E54
:100A1000C30ED56E010EC26E0E0EC16E940EC06E68
:100A2000240EAC6E900EAB6E000EB86E190EAF6E4B
:100A300012008D8028EF05F00BC0F6FF0CC0F7FF09
:100A40000800F550C2EC05F00B4A0C2A28EF05F01F
:100A50000BC0F6FF0CC0F7FF0800F5500009D8A442
:100A600034EF05F036EF05F01CEF05F038EF05F038
:100A700012008D8048EF05F002C0F6FF03C0F7FFBB
:100A80000800F550CCEC05F0024A032A48EF05F0C7
:100A900002C0F6FF03C0F7FF0800F5500009D8A414
:100AA00054EF05F056EF05F03CEF05F058EF05F078
:100AB0001200819A81908190B6EC05F0A60E026E2C
:100AC000060E036E39EC05F0060E056E130E046E6D
:100AD000AE0EE82EFED7042EFCD7052EFAD7B6ECC4
:100AE00005F0950E026E060E036E39EC05F012004D
:100AF000818E818A8180B6EC05F0EE0E026E060EC4
:100B0000036E39EC05F0280ED6EC05F0340E026EBB
:100B1000060E036E39EC05F01200819A819E8180E9
:100B2000B6EC05F0D40E026E060E036E39EC05F03D
:100B3000000E106E010E0F6E1200126A116A106A1A
:100B40000F6A13901392000EF86E060EF76E0001F6
:100B500074EF04F08D90010EC2EC05F0030E0B6EE5
:100B6000980EE82EFED70B2EFCD712008D90010EAA
:100B7000CCEC05F0030E026E980EE82EFED7022E86
:100B8000FCD712000A6EC80E00D0E82EFDD70AC0AE
:100B900083FF8D828D921200016EC80E00D0E82E68
:100BA000FDD701C083FF8D828D921200026E8D9061
:0A0BB0000250800FCCEC05F012009B
:020000040020DA
:08000000FFFFFFFFFFFFFFFF00
:020000040030CA
:0E000000FF081F1EFF8181FF0FC00FE00F40A1
:00000001FF
